{
  "abi": [
    {
      "inputs": [
        {
          "internalType": "uint256[]",
          "name": "_proposals",
          "type": "uint256[]"
        }
      ],
      "stateMutability": "nonpayable",
      "type": "constructor"
    },
    {
      "inputs": [
        {
          "internalType": "uint256",
          "name": "",
          "type": "uint256"
        }
      ],
      "name": "proposals",
      "outputs": [
        {
          "internalType": "uint256",
          "name": "",
          "type": "uint256"
        }
      ],
      "stateMutability": "view",
      "type": "function"
    },
    {
      "inputs": [
        {
          "internalType": "uint256",
          "name": "proposal",
          "type": "uint256"
        }
      ],
      "name": "vote",
      "outputs": [],
      "stateMutability": "nonpayable",
      "type": "function"
    },
    {
      "inputs": [
        {
          "internalType": "uint256",
          "name": "",
          "type": "uint256"
        }
      ],
      "name": "voteCounts",
      "outputs": [
        {
          "internalType": "uint256",
          "name": "",
          "type": "uint256"
        }
      ],
      "stateMutability": "view",
      "type": "function"
    },
    {
      "inputs": [
        {
          "internalType": "address",
          "name": "",
          "type": "address"
        }
      ],
      "name": "voters",
      "outputs": [
        {
          "internalType": "bool",
          "name": "voted",
          "type": "bool"
        },
        {
          "internalType": "uint256",
          "name": "vote",
          "type": "uint256"
        }
      ],
      "stateMutability": "view",
      "type": "function"
    },
    {
      "inputs": [],
      "name": "winningProposal",
      "outputs": [
        {
          "internalType": "uint256",
          "name": "",
          "type": "uint256"
        }
      ],
      "stateMutability": "view",
      "type": "function"
    }
  ],
  "bytecode": {
    "object": "0x608060405234801561001057600080fd5b506040516104fc3803806104fc83398101604081905261002f916100bf565b8051610042906002906020840190610049565b505061017c565b828054828255906000526020600020908101928215610084579160200282015b82811115610084578251825591602001919060010190610069565b50610090929150610094565b5090565b5b808211156100905760008155600101610095565b634e487b7160e01b600052604160045260246000fd5b600060208083850312156100d257600080fd5b82516001600160401b03808211156100e957600080fd5b818501915085601f8301126100fd57600080fd5b81518181111561010f5761010f6100a9565b8060051b604051601f19603f83011681018181108582111715610134576101346100a9565b60405291825284820192508381018501918883111561015257600080fd5b938501935b8285101561017057845184529385019392850192610157565b98975050505050505050565b6103718061018b6000396000f3fe608060405234801561001057600080fd5b50600436106100575760003560e01c80630121b93f1461005c578063013cf08b146100715780633c3a220d14610097578063609ff1bd146100b7578063a3ec138d146100bf575b600080fd5b61006f61006a3660046102b5565b610103565b005b61008461007f3660046102b5565b6101dd565b6040519081526020015b60405180910390f35b6100846100a53660046102b5565b60016020526000908152604090205481565b6100846101fe565b6100ec6100cd3660046102ce565b6000602081905290815260409020805460019091015460ff9091169082565b60408051921515835260208301919091520161008e565b3360009081526020819052604090205460ff16156101595760405162461bcd60e51b815260206004820152600e60248201526d20b63932b0b23c903b37ba32b21760911b60448201526064015b60405180910390fd5b600254811061019e5760405162461bcd60e51b815260206004820152601160248201527024b73b30b634b210383937b837b9b0b61760791b6044820152606401610150565b33600090815260208181526040808320805460ff19166001908117825590810185905584845290915281208054916101d5836102fe565b919050555050565b600281815481106101ed57600080fd5b600091825260209091200154905081565b60008080805b60025481101561028f5782600160006002848154811061022657610226610325565b9060005260206000200154815260200190815260200160002054111561027d57600160006002838154811061025d5761025d610325565b906000526020600020015481526020019081526020016000205492508091505b80610287816102fe565b915050610204565b50600281815481106102a3576102a3610325565b90600052602060002001549250505090565b6000602082840312156102c757600080fd5b5035919050565b6000602082840312156102e057600080fd5b81356001600160a01b03811681146102f757600080fd5b9392505050565b60006001820161031e57634e487b7160e01b600052601160045260246000fd5b5060010190565b634e487b7160e01b600052603260045260246000fdfea26469706673582212208a26417acccf0dee90139aa8554c9400e9cb7ac0aff9d1cd8c6c279738832a2264736f6c63430008150033",
    "linkReferences": {}
  },
  "methodIdentifiers": {
    "proposals(uint256)": "013cf08b",
    "vote(uint256)": "0121b93f",
    "voteCounts(uint256)": "3c3a220d",
    "voters(address)": "a3ec138d",
    "winningProposal()": "609ff1bd"
  },
  "id": 1
}